{
  "contractName": "Auction",
  "abi": [
    {
      "constant": false,
      "inputs": [
        {
          "name": "_account",
          "type": "address"
        },
        {
          "name": "_token",
          "type": "uint8"
        }
      ],
      "name": "register",
      "outputs": [],
      "payable": false,
      "stateMutability": "nonpayable",
      "type": "function"
    },
    {
      "constant": true,
      "inputs": [],
      "name": "rule",
      "outputs": [
        {
          "name": "startingPrice",
          "type": "uint8"
        },
        {
          "name": "minimumStep",
          "type": "uint8"
        }
      ],
      "payable": false,
      "stateMutability": "view",
      "type": "function"
    },
    {
      "constant": false,
      "inputs": [
        {
          "name": "_price",
          "type": "uint8"
        }
      ],
      "name": "bid",
      "outputs": [],
      "payable": false,
      "stateMutability": "nonpayable",
      "type": "function"
    },
    {
      "constant": true,
      "inputs": [],
      "name": "auctioneer",
      "outputs": [
        {
          "name": "",
          "type": "address"
        }
      ],
      "payable": false,
      "stateMutability": "view",
      "type": "function"
    },
    {
      "constant": false,
      "inputs": [],
      "name": "announce",
      "outputs": [],
      "payable": false,
      "stateMutability": "nonpayable",
      "type": "function"
    },
    {
      "constant": true,
      "inputs": [],
      "name": "currentPrice",
      "outputs": [
        {
          "name": "",
          "type": "uint8"
        }
      ],
      "payable": false,
      "stateMutability": "view",
      "type": "function"
    },
    {
      "constant": true,
      "inputs": [],
      "name": "currentWinner",
      "outputs": [
        {
          "name": "",
          "type": "address"
        }
      ],
      "payable": false,
      "stateMutability": "view",
      "type": "function"
    },
    {
      "constant": true,
      "inputs": [],
      "name": "state",
      "outputs": [
        {
          "name": "",
          "type": "uint8"
        }
      ],
      "payable": false,
      "stateMutability": "view",
      "type": "function"
    },
    {
      "constant": false,
      "inputs": [],
      "name": "getDeposit",
      "outputs": [],
      "payable": false,
      "stateMutability": "nonpayable",
      "type": "function"
    },
    {
      "constant": true,
      "inputs": [],
      "name": "announcementTimes",
      "outputs": [
        {
          "name": "",
          "type": "uint8"
        }
      ],
      "payable": false,
      "stateMutability": "view",
      "type": "function"
    },
    {
      "constant": true,
      "inputs": [
        {
          "name": "",
          "type": "address"
        }
      ],
      "name": "bidders",
      "outputs": [
        {
          "name": "token",
          "type": "uint8"
        },
        {
          "name": "deposit",
          "type": "uint8"
        }
      ],
      "payable": false,
      "stateMutability": "view",
      "type": "function"
    },
    {
      "constant": false,
      "inputs": [],
      "name": "startSession",
      "outputs": [],
      "payable": false,
      "stateMutability": "nonpayable",
      "type": "function"
    },
    {
      "inputs": [
        {
          "name": "_startingPrice",
          "type": "uint8"
        },
        {
          "name": "_minimumStep",
          "type": "uint8"
        }
      ],
      "payable": false,
      "stateMutability": "nonpayable",
      "type": "constructor"
    }
  ],
  "bytecode": "0x606060405260008060006101000a81548160ff0219169083600381111561002257fe5b021790555060008060016101000a81548160ff021916908360ff16021790555060008060026101000a81548160ff021916908360ff1602179055506000600360146101000a81548161ffff021916908361ffff160217905550341561008657600080fd5b604051604080610e958339810160405280805190602001909190805190602001909190505033600360006101000a81548173ffffffffffffffffffffffffffffffffffffffff021916908373ffffffffffffffffffffffffffffffffffffffff16021790555081600160000160006101000a81548160ff021916908360ff16021790555080600160000160016101000a81548160ff021916908360ff16021790555081600060026101000a81548160ff021916908360ff1602179055505050610d41806101546000396000f3006060604052600436106100ba576000357c0100000000000000000000000000000000000000000000000000000000900463ffffffff16806307e49598146100bf57806325e3d5221461010457806333500e26146101405780635ec2c7bf146101665780638f970df0146101bb5780639d1b464a146101d0578063aabe2fe3146101ff578063c19d93fb14610254578063c399ec881461028b578063e4f8c1b6146102a0578063fcc8f793146102cf578063fe0ae1651461032f575b600080fd5b34156100ca57600080fd5b610102600480803573ffffffffffffffffffffffffffffffffffffffff1690602001909190803560ff16906020019091905050610344565b005b341561010f57600080fd5b610117610485565b604051808360ff1660ff1681526020018260ff1660ff1681526020019250505060405180910390f35b341561014b57600080fd5b610164600480803560ff169060200190919050506104b1565b005b341561017157600080fd5b6101796106f4565b604051808273ffffffffffffffffffffffffffffffffffffffff1673ffffffffffffffffffffffffffffffffffffffff16815260200191505060405180910390f35b34156101c657600080fd5b6101ce61071a565b005b34156101db57600080fd5b6101e361081e565b604051808260ff1660ff16815260200191505060405180910390f35b341561020a57600080fd5b610212610831565b604051808273ffffffffffffffffffffffffffffffffffffffff1673ffffffffffffffffffffffffffffffffffffffff16815260200191505060405180910390f35b341561025f57600080fd5b610267610857565b6040518082600381111561027757fe5b60ff16815260200191505060405180910390f35b341561029657600080fd5b61029e610869565b005b34156102ab57600080fd5b6102b3610bee565b604051808260ff1660ff16815260200191505060405180910390f35b34156102da57600080fd5b610306600480803573ffffffffffffffffffffffffffffffffffffffff16906020019091905050610c01565b604051808360ff1660ff1681526020018260ff1660ff1681526020019250505060405180910390f35b341561033a57600080fd5b610342610c3f565b005b61034c610cf5565b600360009054906101000a900473ffffffffffffffffffffffffffffffffffffffff1673ffffffffffffffffffffffffffffffffffffffff163373ffffffffffffffffffffffffffffffffffffffff161415156103a857600080fd5b60008060038111156103b657fe5b6000809054906101000a900460ff1660038111156103d057fe5b1415156103dc57600080fd5b60408051908101604052808460ff168152602001600060ff16815250915081600460008673ffffffffffffffffffffffffffffffffffffffff1673ffffffffffffffffffffffffffffffffffffffff16815260200190815260200160002060008201518160000160006101000a81548160ff021916908360ff16021790555060208201518160000160016101000a81548160ff021916908360ff16021790555090505050505050565b60018060000160009054906101000a900460ff16908060000160019054906101000a900460ff16905082565b60008060018060038111156104c257fe5b6000809054906101000a900460ff1660038111156104dc57fe5b1415156104e857600080fd5b600360009054906101000a900473ffffffffffffffffffffffffffffffffffffffff1673ffffffffffffffffffffffffffffffffffffffff163373ffffffffffffffffffffffffffffffffffffffff161415151561054557600080fd5b339250600460008473ffffffffffffffffffffffffffffffffffffffff1673ffffffffffffffffffffffffffffffffffffffff1681526020019081526020016000209150600160000160019054906101000a900460ff16600060029054906101000a900460ff160160ff168460ff161115156105c057600080fd5b8360ff168260000160009054906101000a900460ff1660ff16101515156105e657600080fd5b838260000160008282829054906101000a900460ff160392506101000a81548160ff021916908360ff160217905550838260000160018282829054906101000a900460ff160192506101000a81548160ff021916908360ff1602179055508360ff16600360148282829054906101000a900461ffff160192506101000a81548161ffff021916908361ffff16021790555083600060026101000a81548160ff021916908360ff16021790555082600260006101000a81548173ffffffffffffffffffffffffffffffffffffffff021916908373ffffffffffffffffffffffffffffffffffffffff16021790555060008060016101000a81548160ff021916908360ff16021790555050505050565b600360009054906101000a900473ffffffffffffffffffffffffffffffffffffffff1681565b600180600381111561072857fe5b6000809054906101000a900460ff16600381111561074257fe5b14151561074e57600080fd5b600360009054906101000a900473ffffffffffffffffffffffffffffffffffffffff1673ffffffffffffffffffffffffffffffffffffffff163373ffffffffffffffffffffffffffffffffffffffff161415156107aa57600080fd5b6000600181819054906101000a900460ff168092919060010191906101000a81548160ff021916908360ff160217905550506003600060019054906101000a900460ff1660ff16111561081b5760026000806101000a81548160ff0219169083600381111561081557fe5b02179055505b50565b600060029054906101000a900460ff1681565b600260009054906101000a900473ffffffffffffffffffffffffffffffffffffffff1681565b6000809054906101000a900460ff1681565b600280600381111561087757fe5b6000809054906101000a900460ff16600381111561089157fe5b14151561089d57600080fd5b600360009054906101000a900473ffffffffffffffffffffffffffffffffffffffff1673ffffffffffffffffffffffffffffffffffffffff163373ffffffffffffffffffffffffffffffffffffffff16141515156108fa57600080fd5b600260009054906101000a900473ffffffffffffffffffffffffffffffffffffffff1673ffffffffffffffffffffffffffffffffffffffff163373ffffffffffffffffffffffffffffffffffffffff16141515610ba457600460003373ffffffffffffffffffffffffffffffffffffffff1673ffffffffffffffffffffffffffffffffffffffff16815260200190815260200160002060000160019054906101000a900460ff1660ff16600360148282829054906101000a900461ffff160392506101000a81548161ffff021916908361ffff160217905550600460003373ffffffffffffffffffffffffffffffffffffffff1673ffffffffffffffffffffffffffffffffffffffff16815260200190815260200160002060000160019054906101000a900460ff16600460003373ffffffffffffffffffffffffffffffffffffffff1673ffffffffffffffffffffffffffffffffffffffff16815260200190815260200160002060000160008282829054906101000a900460ff160192506101000a81548160ff021916908360ff1602179055506000600460003373ffffffffffffffffffffffffffffffffffffffff1673ffffffffffffffffffffffffffffffffffffffff16815260200190815260200160002060000160016101000a81548160ff021916908360ff16021790555060046000600260009054906101000a900473ffffffffffffffffffffffffffffffffffffffff1673ffffffffffffffffffffffffffffffffffffffff1673ffffffffffffffffffffffffffffffffffffffff16815260200190815260200160002060000160019054906101000a900460ff1660ff16600360149054906101000a900461ffff1661ffff161415610b9f5760036000806101000a81548160ff02191690836003811115610b9957fe5b02179055505b610ba9565b600080fd5b6000600360149054906101000a900461ffff1661ffff16111515610beb5760036000806101000a81548160ff02191690836003811115610be557fe5b02179055505b50565b600060019054906101000a900460ff1681565b60046020528060005260406000206000915090508060000160009054906101000a900460ff16908060000160019054906101000a900460ff16905082565b6000806003811115610c4d57fe5b6000809054906101000a900460ff166003811115610c6757fe5b141515610c7357600080fd5b600360009054906101000a900473ffffffffffffffffffffffffffffffffffffffff1673ffffffffffffffffffffffffffffffffffffffff163373ffffffffffffffffffffffffffffffffffffffff16141515610ccf57600080fd5b60016000806101000a81548160ff02191690836003811115610ced57fe5b021790555050565b6040805190810160405280600060ff168152602001600060ff16815250905600a165627a7a72305820060006e566d86e0c855fc3483ed03e14f223f39c653bb23e25db8a0ece0a33a50029",
  "source": "pragma solidity ^0.4.17;\n\ncontract Auction {\n    \n    // Data\n    \n    // Structure to hold details of Bidder\n    struct IBidder {\n        uint8 token;\n        uint8 deposit;\n    }\n    \n    // Structure to hold details of Rule\n    struct IRule {\n        uint8 startingPrice;\n        uint8 minimumStep;\n    }\n    \n    \n    // State Enum to define Auction's state\n    enum State { CREATED, STARTED, CLOSING, CLOSED }\n    \n    State public state = State.CREATED; // State of Auction\n    \n    uint8 public announcementTimes = 0; // Number of announcements\n    uint8 public currentPrice = 0; // Latest price is bid.\n    IRule public rule; // Rule of this session\n    address public currentWinner; // Current Winner, who bid the highest price.\n    address public auctioneer;\n    \n    uint16 private totalDeposit = 0;\n    \n    mapping(address => IBidder) public bidders; // Mapping to hold bidders' information\n      \n    function Auction(uint8 _startingPrice, uint8 _minimumStep) public {\n        \n        // Task #1 - Initialize the Smart contract\n        // + Initialize Auctioneer with address of smart contract's owner\n        // + Set the starting price & minimumStep\n        // + Set the current price as the Starting price\n        \n        \n        // ** Start code here. 4 lines approximately. ** /\n        auctioneer = msg.sender;\n        rule.startingPrice = _startingPrice;\n        rule.minimumStep = _minimumStep;\n        currentPrice = _startingPrice;\n    \n        // ** End code here. ** /\n    }\n    \n    \n    // Register new Bidder\n    function register(address _account, uint8 _token) public validAuctioner() validState(State.CREATED){ \n        \n                \n        // Task #2 - Register the bidder\n        // + Initialize a Bidder with address and token are given.\n        // + Initialize a Bidder's deposit with 0\n        \n        \n        // ** Start code here. 3 lines approximately. ** /\n       var newBidder = IBidder(_token, 0);\n       bidders[_account] = newBidder;\n\t   // ** End code here. **/\n    }\n\n    \n    // Start the session.\n    function startSession() public validState(State.CREATED) validAuctioner(){\n        state = State.STARTED;\n    }\n    \n\n    \n    function bid(uint8 _price) public validState(State.STARTED) validNormalBidder(){\n        \n        // Task #3 - Bid by Bidders\n        // + Check the price with currentPirce and minimumStep. Revert if invalid.\n        // + Check if the Bidder has enough token to bid. Revert if invalid.\n        // + Move token to Deposit.\n        \n        address bidderAddr = msg.sender;\n        IBidder storage currentBidder = bidders[bidderAddr];\n        \n        // ** Start code here.  ** /\n        require(_price > (currentPrice + rule.minimumStep));\n        require(currentBidder.token >= _price);\n        currentBidder.token -= _price;\n        currentBidder.deposit += _price;\n        // ** End code here. **/\n        \n        // Tracking deposit\n        totalDeposit += _price;\n        \n        // Update the price and the winner after this bid.\n        currentPrice = _price;\n        currentWinner = bidderAddr;\n        \n        // Reset the Annoucements Counter\n        announcementTimes = 0;\n    }\n    \n    function announce() public validState(State.STARTED) validAuctioner(){\n        \n        // Task #4 - Handle announcement.\n        // + When Auctioneer annouce, increase the counter.\n        // + When Auctioneer annouced more than 3 times, switch session to Closing state.\n        \n        // ** Start code here.  ** /\n       announcementTimes++;\n       if (announcementTimes > 3){\n           state = State.CLOSING;\n       }\n\t   \n        // ** End code here. **/\n    }\n    \n    function getDeposit() public validState(State.CLOSING) validNormalBidder() {\n        \n        // Task #5 - Handle get Deposit.\n        // + Allow bidders (except Winner) to withdraw their deposit \n\t\t// + When all bidders' deposit are withdrew, close the session \n        \n        // ** Start code here.  ** /\n        // HINT: Remember to decrease totalDeposit.\n       if (msg.sender != currentWinner){\n            totalDeposit -= bidders[msg.sender].deposit;\n            bidders[msg.sender].token += bidders[msg.sender].deposit;\n            bidders[msg.sender].deposit = 0;\n            \n            if (totalDeposit == bidders[currentWinner].deposit){\n                state = State.CLOSED;\n            }\n        }else{\n            revert();\n        }\n\t   \n       // ** End code here ** /\n       \n       if (totalDeposit <= 0) {\n           state = State.CLOSED;\n       }\n    }\n    \n    modifier validState(State reqState){\n        require(state == reqState);\n        _;\n    }\n    modifier validAuctioner(){\n        require(msg.sender == auctioneer);\n        _;\n    }\n    modifier validNormalBidder(){\n        require(msg.sender != auctioneer);\n        _;\n    }\n}\n\n\n\n\n// PART 2 - Using Modifier to:\n// - Check if the action (startSession, register, bid, annoucement, getDeposit) can be done in current State.\n// - Check if the current user can do the action.",
  "sourcePath": "D:\\truffle\\Auction2\\contracts\\Auction.sol",
  "compiler": {
    "name": "solc",
    "version": "0.4.18+commit.9cf6e910.Emscripten.clang"
  },
  "schemaVersion": "1.0.1",
  "updatedAt": "2019-09-26T13:59:46.589Z"
}